S014000057617465725F4865617465722E7372656355
S11300000C942A000C9458030C9481030C94AA03B6
S11300100C94BE040C9495040C941A040C94FF04E0
S11300200C9443040C946C040C94F1030C9447005A
S11300300C9447000C9447000C9447000C94470020
S11300400C944D010C9447000C9447000C94470009
S11300500C94470011241FBECFE5D8E0DEBFCDBF0E
S113006010E0A0E6B0E0E8EAFAE002C005900D92E4
S1130070AA38B107D9F720E0AAE8B0E001C01D9280
S1130080A53BB207E1F70E94E2000C9452050C94E0
S1130090000080918A008B5F8C3408F08BE480939D
S11300A08A0080918A0090E00C946D0080918A000F
S11300B08550833208F483E280938A0080918A0019
S11300C090E00C946D000E943F030E947D00809399
S11300D08A00089580918A000895CF93C82F0E94C2
S11300E0DA0388EA0E94E30385E00E94E3038C2F8D
S11300F00E94E303CF910C94E003CF930E94DA03B0
S113010088EA0E94E30385E00E94E3030E94DA0385
S113011089EA0E94E3030E94EA03C82F0E94E003D5
S11301208C2FCF91089561E085E10C946D0260E01D
S113013085E10C946D0261E086E10C946D0260E04F
S113014086E10C946D02CF93C82F60E088E00E9492
S11301506D0261E089E00E946D028C2F6AE00E94CA
S11301602305C82FE92FF0E0E05AFF4F608180E0BB
S11301700E94DF0261E088E00E946D0260E089E095
S11301800E946D02EC2FF0E0E05AFF4F608180E0A6
S1130190CF910C94DF0287E00E9441019C01A8E802
S11301A0B3E10E944305DC01CB012AE0B695A79593
S11301B0979587952A95D1F76AE070E00E942F05FC
S11301C0862F08950E943C0363E670E082E00E945B
S11301D043030E943E0363E080E00E94EF0263E079
S11301E081E00E94EF0263E082E00E94EF0269E492
S11301F070E080E00E94430366E570E081E00E94C5
S1130200430363E670E082E00E9443030E945A02C3
S11302100E94D3038CE30E946D0066E080E00E949C
S11302202B010E94CB000E946A000E94CB00D82FB1
S11302300E946A00C82F0E94A300CD1728F40E94D0
S113024093000E949F00F1CFDC1778F70E9497007B
S11302500E949B00EACF813041F028F0823039F4CB
S11302603E9A3F9A04C03E9A01C03E983F9886B198
S1130270887F86B986B16770682B66B93D98379ACE
S1130280089597B1907E97B997B1892B87B9369A1B
S11302903699FECF84B195B108951F920F920FB68F
S11302A00F9211242F933F934F935F936F937F93F8
S11302B08F939F93AF93BF93EF93FF93E0918B0042
S11302C0F0918C00309709F00995FF91EF91BF915F
S11302D0AF919F918F917F916F915F914F913F91DA
S11302E02F910F900FBE0F901F901895982F9695F1
S11302F0969596958770613009F48CC018F0623039
S1130300E9F10895913099F028F09230E9F09330B2
S113031041F108954AB321E030E0B90102C0660F0B
S1130320771F8A95E2F7CB01842B8ABB089547B3E4
S113033021E030E0B90102C0660F771F8A95E2F729
S1130340CB01842B87BB089544B321E030E0B9018D
S113035002C0660F771F8A95E2F7CB01842B84BB1A
S1130360089541B321E030E0B90102C0660F771F60
S11303708A95E2F7CB01842B81BB08959130B9F0C3
S113038028F09230B1F1933019F108954AB321E085
S113039030E0B90102C0660F771F8A95E2F7CB01FE
S11303A0962F909594239ABB9BB3892B4BC047B34C
S11303B021E030E0B90102C0660F771F8A95E2F7A9
S11303C0CB01962F9095942397BB98B3892B4CC05F
S11303D041B321E030E0B90102C0660F771F8A956E
S11303E0E2F7CB01962F9095942391BB92B3892B7E
S11303F05FC044B321E030E0B90102C0660F771F4B
S11304008A95E2F7CB01962F9095942394BB95B3EC
S1130410892B3CC09130C1F028F0923039F19330EF
S1130420B9F108954AB321E030E0B90102C0660F82
S1130430771F8A95E2F7CB018095942F98239ABB76
S11304409BB389238BBB089547B321E030E0B90106
S113045002C0660F771F8A95E2F7CB018095942F2F
S1130460982397BB98B3892388BB089544B321E0AC
S113047030E0B90102C0660F771F8A95E2F7CB011D
S11304808095942F982394BB95B3892385BB0895B5
S113049041B321E030E0B90102C0660F771F8A95AD
S11304A0E2F7CB018095942F982391BB92B38923D3
S11304B082BB08950F931F93CF930AE610E0C0E028
S11304C0F80161918F018C2F0E947601CF5FC032B9
S11304D0B9F7CF911F910F910895982F9770869532
S11304E086958695813001F130F08230B1F1833008
S11304F009F44CC008954BB321E030E0613049F475
S1130500B90102C0660F771F9A95E2F7CB01842BDD
S113051009C0B90102C0660F771F9A95E2F7CB01B3
S1130520809584238BBB089548B321E030E061308B
S113053049F4B90102C0660F771F9A95E2F7CB011F
S1130540842B09C0B90102C0660F771F9A95E2F7A0
S1130550CB018095842388BB089545B321E030E026
S1130560613049F4B90102C0660F771F9A95E2F72A
S1130570CB01842B09C0B90102C0660F771F9A957D
S1130580E2F7CB018095842385BB089542B321E033
S113059030E0613049F4B90102C0660F771F9A95C3
S11305A0E2F7CB01842B09C0B90102C0660F771FA3
S11305B09A95E2F7CB018095842382BB089581301C
S11305C041F028F0823039F0833039F008956BBB64
S11305D0089568BB089565BB089562BB0895813092
S11305E019F118F08230E1F10895613071F050F0A2
S11305F0623089F06330A9F484B7816084BF84B722
S113060081600EC084B78E7F02C084B7816084BFCE
S113061084B78D7F05C084B78E7F84BF84B7826022
S113062084BF8BB7806426C0613059F038F06230E3
S113063071F0633091F484B784600BC084B78B7F0E
S113064002C084B7846084BF84B7877F05C084B741
S11306508B7F84BF84B7886084BF8BB780680AC0EF
S1130660623019F484B78F7B02C084B7806484BF7E
S11306708BB780628BBF089578940895089585B7E9
S11306808F7785BF0895813049F018F0823059F092
S11306900895709392006093910008957093900070
S11306A060938F00089570938E0060938D00089579
S11306B01F920F920FB60F9211242F933F934F93D3
S11306C05F936F937F938F939F93AF93BF93EF93B6
S11306D0FF93E0919100F0919200309709F0099511
S11306E0FF91EF91BF91AF919F918F917F916F9106
S11306F05F914F913F912F910F900FBE0F901F90DC
S113070018951F920F920FB60F9211242F933F93B7
S11307104F935F936F937F938F939F93AF93BF9305
S1130720EF93FF93E0918F00F0919000309709F0E0
S11307300995FF91EF91BF91AF919F918F917F9117
S11307406F915F914F913F912F910F900FBE0F903A
S11307501F9018951F920F920FB60F9211242F938A
S11307603F934F935F936F937F938F939F93AF9335
S1130770BF93EF93FF93E0918D00F0918E0030973B
S113078009F00995FF91EF91BF91AF919F918F91DE
S11307907F916F915F914F913F912F910F900FBE79
S11307A00F901F90189582E080B986B7846086BF49
S11307B011B8089584EA86BF06B607FEFDCF0895F2
S11307C084E986BF089583B984E886BF06B607FE28
S11307D0FDCF089584E886BF06B607FEFDCF83B13A
S11307E008951F920F920FB60F9211242F933F93E7
S11307F04F935F936F937F938F939F93AF93BF9325
S1130800EF93FF93E0919D00F0919E00309709F0E3
S11308100995FF91EF91BF91AF919F918F917F9136
S11308206F915F914F913F912F910F900FBE0F9059
S11308301F9018951F920F920FB60F9211242F93A9
S11308403F934F935F936F937F938F939F93AF9354
S1130850BF93EF93FF93E0919700F0919800309746
S113086009F00995FF91EF91BF91AF919F918F91FD
S11308707F916F915F914F913F912F910F900FBE98
S11308800F901F9018951F920F920FB60F9211247C
S11308902F933F934F935F936F937F938F939F9384
S11308A0AF93BF93EF93FF93E0919900F0919A0077
S11308B0309709F00995FF91EF91BF91AF919F9106
S11308C08F917F916F915F914F913F912F910F90F5
S11308D00FBE0F901F9018951F920F920FB60F9294
S11308E011242F933F934F935F936F937F938F9331
S11308F09F93AF93BF93EF93FF93E0919B00F0918D
S11309009C00309709F00995FF91EF91BF91AF9149
S11309109F918F917F916F915F914F913F912F9113
S11309200F900FBE0F901F9018951F920F920FB645
S11309300F9211242F933F934F935F936F937F9361
S11309408F939F93AF93BF93EF93FF93E0919500A1
S1130950F0919600309709F00995FF91EF91BF91BE
S1130960AF919F918F917F916F915F914F913F9143
S11309702F910F900FBE0F901F9018951F920F92FA
S11309800FB60F9211242F933F934F935F936F935E
S11309907F938F939F93AF93BF93EF93FF93E091D4
S11309A09300F0919400309709F00995FF91EF912D
S11309B0BF91AF919F918F917F916F915F914F9173
S11309C03F912F910F900FBE0F901F901895E0EA62
S11309D0F0E080819181892B61F08281811107C0CF
S11309E085818F5F85838681882319F001C08150BA
S11309F08283379680E0E53BF80759F708951F9204
S1130A000F920FB60F9211242F933F934F935F933E
S1130A106F937F938F939F93AF93BF93EF93FF93C2
S1130A200E94E704FF91EF91BF91AF919F918F9145
S1130A307F916F915F914F913F912F910F900FBED6
S1130A400F901F901895991B79E004C0991F961771
S1130A5008F0961B881F7A95C9F780950895AA1BFC
S1130A60BB1B51E107C0AA1FBB1FA617B70710F095
S1130A70A61BB70B881F991F5A95A9F780959095C7
S1130A80BC01CD010895A29FB001B39FC001A39FF3
S1130A90700D811D1124911DB29F700D811D1124B3
S10B0AA0911D0895F894FFCFA5
S1130AA8000102030405060708090000000000000D
S1130AB80001000002000000020200000000000023
S10D0AC8000000000202000000001C
S9030000FC
